:020000040800F2
:1000000040070020CD010008B1030008AD0300083F
:10001000AF030008DF0200081D0A0008000000000E
:10002000000000000000000000000000970600082B
:10003000E102000800000000190400085F07000842
:10004000E7010008E7010008E7010008E7010008F0
:10005000E7010008E7010008E7010008E7010008E0
:10006000E7010008E7010008E7010008E7010008D0
:10007000E7010008E7010008E7010008E7010008C0
:10008000E7010008E7010008E7010008E7010008B0
:10009000E7010008E7010008E7010008E7010008A0
:1000A000E7010008E7010008E7010008E701000890
:1000B000E7010008E7010008E7010008E701000880
:1000C000E7010008E7010008E7010008E701000870
:1000D000E701000899080008E7010008E7010008A7
:1000E000E7010008E7010008E7010008E701000850
:1000F000E7010008E7010008E7010008E701000840
:10010000E7010008E7010008E7010008E70100082F
:10011000E7010008E7010008E7010008E70100081F
:10012000E7010008E7010008E7010008E70100080F
:1001300000F002F800F03AF80AA090E8000C8244BF
:100140008344AAF10107DA4501D100F02FF8AFF29C
:10015000090EBAE80F0013F0010F18BFFB1A43F0A5
:10016000010318475416000074160000103A24BF0B
:1001700078C878C1FAD8520724BF30C830C144BF0C
:1001800004680C607047000000230024002500264E
:10019000103A28BF78C1FBD8520728BF30C148BFEA
:1001A0000B6070471FB51FBD10B510BD00F05DF8A6
:1001B0001146FFF7F7FF01F0D3F800F07BF803B426
:1001C000FFF7F2FF03BC00F083F800000948804706
:1001D00009480047FEE7FEE7FEE7FEE7FEE7FEE729
:1001E000FEE7FEE7FEE7FEE704480549054A064B41
:1001F000704700006107000831010008400100203D
:1002000040070020400300204003002040EA010393
:1002100010B59B070FD1042A0DD310C808C9121FAF
:100220009C42F8D020BA19BA884201D9012010BDE9
:100230004FF0FF3010BD1AB1D30703D0521C07E0B6
:10024000002010BD10F8013B11F8014B1B1B07D11A
:1002500010F8013B11F8014B1B1B01D1921EF1D18B
:10026000184610BD704770477047754600F02CF86F
:10027000AE4605006946534620F00700854618B093
:1002800020B5FFF7B1FFBDE820404FF000064FF06A
:1002900000074FF000084FF0000B21F00701AC46BB
:1002A000ACE8C009ACE8C009ACE8C009ACE8C009DA
:1002B0008D46704710B50446AFF300802046BDE878
:1002C0001040FFF77CBF000000487047E0000020AE
:1002D00001491820ABBEFEE7260002007047FEE78A
:1002E000704700000349024600200968114200D00F
:1002F0000120704700040140F0B5CA78002502F0E3
:100300000F03D20601D58A7813430A784FF00F0EF7
:1003100012F0FF0F4FF001021CD004680F8802FAA0
:1003200005F63740B74211D14FEA850C0EFA0CF7AB
:1003300024EA070703FA0CF43C43CF78282F02D0B5
:10034000482F02D002E0466100E006616D1C082DD6
:10035000E4D304600C88FF2C1ED944685FF00006CB
:1003600006F1080702FA07F50F882F40AF420FD1B8
:100370004FEA860C0EFA0CF7BC4303FA0CF73C4329
:10038000CF78282F00D14561CF78482F00D1056163
:10039000761C082EE4D34460F0BD416170470161D2
:1003A00070470AB10161704741617047FEE7FEE79F
:1003B0007047000070B50F23C47801780122F4B1B2
:1003C000144C2468457804F4E064C4F5E064240A1D
:1003D000C4F10406E3408478B5401C402C4301F18D
:1003E000E021230181F80034007800F01F018A40E9
:1003F0004009800000F1E020C0F8002170BD01F04C
:100400001F0082404809800000F1E020C0F88021F0
:1004100070BD00000CED00E070470000044A0029A8
:10042000116901D0014300E0814311617047000070
:1004300000100240044A0029916901D0014300E004
:10044000814391617047000000100240044A002976
:10045000D16801D0014300E08143D16070470000C2
:100460000010024030B5224A5168224B11F00C01B5
:1004700003D0042903D0082903D0036016E01E49E5
:1004800013E05168536801F470114FF0020413F443
:10049000803F04EB914104D053689B0303D5154B77
:1004A00002E0164B00E0144B5943016051680F23E2
:1004B00003EA1111124B5C5C0168E1404160546831
:1004C000072505EA14241C5D21FA04F484605468AD
:1004D00005EAD4241B5DD940C1605268032303EAB6
:1004E0009232074B1B1F9A5CB1FBF2F1016130BDE8
:1004F0000010024000127A000024F40000093D00C0
:1005000004000020034A118821F0380101431180C2
:1005100070470000003001400029018802D041F0FE
:10052000400101E021F040010180704770B586B0C4
:10053000012141F20C00FFF77DFF294D284600F014
:1005400053F80021ADF800104FF48270ADF80200AE
:10055000ADF808106815ADF80A002020ADF80C00C1
:10056000ADF804100720ADF80610ADF80E10ADF888
:1005700010006946284600F068F8A020ADF8140085
:1005800018208DF81700174E03248DF8164005A982
:100590003046FFF7B1FE4020ADF8140048208DF83A
:1005A000170005A93046FFF7A7FE1021ADF814107B
:1005B0008DF817108DF8164005A93046FFF79CFE00
:1005C0000021284600F05DF801212846FFF7A4FF2E
:1005D00010213046FFF7E3FE06B0002070BD00009A
:1005E0000030014000080140114910B588420AD18D
:1005F000841401212046FFF729FF2046BDE8104062
:100600000021FFF723BF0B49884202D101210414C6
:1006100004E0094988420AD10121C4132046FFF7AA
:10062000FDFE2046BDE810400021FFF7F7BE10BDDB
:100630000030014000380040003C004002460020ED
:1006400012890A4200D00120704730B502884C88D8
:1006500002F441530A88CD8822438C882C432243DC
:100660000C8922434C8922438C892243CC89224322
:100670001A430280828B22F400628283098A0182FB
:1006800030BD0029818802D041F0040101E021F051
:1006900004018180704770470CB500212648019104
:1006A0000091026842F4803202604FF4A063026855
:1006B00002F400320092019A521C0192009A12B97F
:1006C000019A9A42F3D10268920333D50121009135
:1006D0001A490A6842F010020A600A6822F003020E
:1006E0000A600A6842F002020A604168416041689B
:1006F0004160416841F480614160416821F47C11AE
:100700004160416841F4F8114160016841F0807135
:10071000016001688901FCD5416821F00301416055
:10072000416841F0020141604168C1F38101022941
:10073000FAD10CBD00910CBD001002400020024017
:1007400080B200F05FBA4FF0E0210428086903D0BE
:1007500020F004000861704740F00400FAE7704799
:100760000F4810B5016841F00101016041680D4A70
:100770001140416001680C4A11400160016821F498
:1007800080210160416821F4FE0141604FF41F01A6
:100790008160FFF781FF05494FF00060086010BDE0
:1007A000001002400000FFF8FFFFF6FE08ED00E039
:1007B00030B587B001210420FFF73CFE01218803FA
:1007C000FFF738FE18208DF813004FF40070ADF8D5
:1007D0001000204D03248DF8124004A92846FFF78D
:1007E0008BFD48208DF813002815ADF810008DF80A
:1007F000124004A92846FFF77FFD4FF4E130009036
:1008000000200C21ADF80A10ADF80600124CADF82E
:100810000C00ADF80800ADF804006946204600F071
:100820009FF8012240F22551204600F081F8252052
:100830008DF8140001218DF817108DF815108DF822
:10084000161005A8FFF7B6FD0121204600F040F87C
:1008500007B030BD000801400038014070B50C46BB
:1008600005468021284600F03DF80028F9D02146B1
:100870002846BDE8704000F0CDB870B50C4605467E
:1008800006E02846FFF7EAFF20780A2803D0641C18
:1008900021780029F5D170BD70B5094C40F225557D
:1008A0002946204600F025F8012808D1204600F00E
:1008B000ADF829462046BDE8704000F003B870BD91
:1008C000003801400A0A01219140C9430180704764
:1008D0000029818902D041F4005101E021F4005146
:1008E000818170470246002012880A4200D0012010
:1008F000704730B501F01F0201240025C1F34213F7
:1009000004FA02F2012B0FD0022B0FD0838A4FEA98
:1009100011210088134204FA01F400EA040001D016
:1009200000B10125284630BD8389F0E7038AEEE750
:1009300010B5C1F3421301F01F040121A140012BA6
:1009400007D0022B07D01430002A026805D00A43D2
:1009500004E00C30F8E71030F6E78A43026010BD7F
:1009600030B50446008A85B00D464CF6FF7108404C
:10097000E98801432182A1894EF6F3100140A8883D
:100980002A8910436A890A431043A081A08A4FF63E
:10099000FF410840A9890143A1826846FFF762FD33
:1009A0001948844201D1039800E00298A189090402
:1009B00000EBC00101EB0010296801D5490000E0FF
:1009C0008900B0FBF1F06422B0FBF2F109010B09E0
:1009D0006FF018056B4300EB8300A3891D044FF0F3
:1009E000320306D503EBC000B0FBF2F000F00700C5
:1009F00005E003EB0010B0FBF2F000F00F0008433D
:100A0000208105B030BD0000003801408088C0F36F
:100A100008007047C1F3080181807047FEE710B5F8
:100A2000002202212C2000F049FC0222BDE81040E7
:100A300011462C2000F042BC10B504466D2240F651
:100A400006012E2000F03AFC41F6060114B140F2F6
:100A5000076201E041F20762BDE810402E2000F07D
:100A600011BC10B5002000F007F800220421BDE8F9
:100A70001040362000F006BC38B504466B46022212
:100A80000021362000F0E2FA0F2C2DD2DFE804F02E
:100A90001008162C2C2C2C1E3A2C2C454A4F560094
:100AA00000208DF800009DF8010000F0FE0019E024
:100AB0009DF8000000F0FC00401C04E09DF80000E0
:100AC00000F0FC00801C8DF800000DE09DF8000097
:100AD00000F0B30040F048008DF800009DF80100E0
:100AE00040F080008DF801006B4601220021362085
:100AF00000F0ECFB0122114636200DF1010300F05D
:100B0000E5FB38BD9DF8000000F0B3008DF8000053
:100B10009DF8010000F07F00E4E79DF8010040F03F
:100B20000200DFE79DF8010000F0FD00DAE79DF824
:100B3000000000F0CF0040F02000C4E701208DF855
:100B400000000320CEE710B50E20FFF795FF4FF40D
:100B5000004206212D2000F095FB012000F01BF83B
:100B6000BDE810400120FFF787BF10B50246042101
:100B70002D2000F087FB032206212D2000F09EFB94
:100B8000002206212D2000F099FB0A21BDE810402B
:100B90002D2000F03CBAFFF7D3BD002805D04FF060
:100BA000E0214FF40000C1F80001704710B5172094
:100BB000FFF798FB002805D04FF0E0224FF400012A
:100BC000C2F8801110BD000010B56FF00400FFF7EF
:100BD000BAFD094809490068B0FBF1F0C1B2084804
:100BE00001EB41020170C2EBC1114FF6FF7202EA44
:100BF000C101418010BD00001400002000127A00E5
:100C0000280000200B49498848434FF0E021486103
:100C100000228A61086940F0010008610869C30781
:100C200001D0C003FAD5086920F0010008618A618B
:100C300070470000280000200B49097848434FF016
:100C4000E021486100228A61086940F001000861E2
:100C50000869C30701D0C003FAD5086920F0010074
:100C600008618A6170470000280000202DE9F05FCC
:100C700004460578407977494FF00009C84631F8B5
:100C800010706078401EC6B2042D76D0072D74D047
:100C90000020714A8246E3791068002B01696ED00A
:100CA00021F480010161217A81720169934621F466
:100CB00040320261217A4FF4403303EA01410A4392
:100CC00002610021042000F0EAFA3A4642F60401EB
:100CD0002E2000F0D7FA3046FFF7AEFE5F4F604996
:100CE000785D51F8202007212B2000F0D8FA785D9C
:100CF0005C490A5C0B212B2000F0E0FA5A492820BD
:100D000011F80A200B2100F0D9FA785D574951F803
:100D100020200C21282000F0C2FAE079544901EB90
:100D20008000A17930F811200221272000F0AAFAD2
:100D30005048042130F81620272000F0A3FAE0796B
:100D400010B3A078042825D020220621272000F007
:100D500099FA28222621272000F0B0FA4648E178A7
:100D600000EB061050F821200821272000F097FA08
:100D70006089B0B118E000E001E0012089E741F4AA
:100D80008001FF0801618EE764220621272000F020
:100D900079FAE3E710220621272000F073FA1022E7
:100DA000D8E741F24100608182B22021272000F083
:100DB00069FA324F0C2123203A6800F070FA07EBF1
:100DC000460004218288232000F05CFAA07950B10B
:100DD000E0792B490A5C0021212000F06FFA4FF0E6
:100DE00003094FF0010805F00F00290740EA1160E0
:100DF00062784FF4402101EA824108434FF44012E7
:100E000002EA095108434FF4003202EA484108431C
:100E100021794FF0F86202EA81510843617940EA92
:100E2000C16200211F2000F03AFAA07861780843DF
:100E3000E179000440EA4132DBF800000021C260A1
:100E4000082000F02CFABDE8F05F422200210D20BE
:100E500000F034BA841700082C000020081700089E
:100E60002817000840170008461700081017000848
:100E70005417000860170008641700084817000896
:100E80005017000870B5584C0546002620680675B6
:100E90004675C6828662C6620663466300F0D2F873
:100EA0005249884201D0881770BDA80702D400F0CB
:100EB00099F902E015F0F80F02D10020FFF7DCFDF0
:100EC00004220021242000F0F9F9A80710D40420FE
:100ED000FFF74BFE10F0FF0F18D0022212212D2039
:100EE00000F0ECF92068C18A41F48051C1820DE024
:100EF0003021282000F08BF8B0F1883F04D0206822
:100F0000C18A41F48051C18228070BD51E20FFF70A
:100F10002CFE226880B2010AD172A90709D4C10649
:100F200003D003E02068C67203E01020C0B200F0D6
:100F300050F9E80605D50620FFF717FE216808607E
:100F400001E020680660A80605D50720FFF70DFE22
:100F50002168486001E020684660680605D50820E1
:100F6000FFF703FE2168087201E020680672280678
:100F700005D50920FFF7F9FD2168487201E02068D6
:100F80004672A8070FD4E80702D0FFF7DCFD0CE09B
:100F90000521362000F02CF820F4007205213620BF
:100FA00000F070F906E0680704D42068C18A41F4B3
:100FB0000061C1820120FFF75FFD00220A212C2081
:100FC00000F07CF90021042000F021F8216808617C
:100FD000C0F3014088720021082000F018F8216851
:100FE000C860002070BD00002C0000203001CADE67
:100FF00008B589B280B26B46022200F027F89DF84E
:1010000000009DF8011000EB012080B208BD38B54A
:10101000002489B280B26B46042200F017F8032145
:101020006846425C491E02EB0424FAD5204638BDCE
:1010300008B589B280B26B46012200F007F89DF82E
:10104000000008BD00210846FFF7E1BF08B551B117
:1010500040F040008DF80000C8B27F2907D88DF815
:10106000010002200BE08DF80000012007E040F0B5
:1010700080008DF80100C8098DF802000320694640
:1010800000F0A8FA08BD30B414460A4621460346CB
:1010900030BC1120FFF7DABF0346052200211520DE
:1010A000FFF7D4BF0346052200211720FFF7CEBF6C
:1010B00010B5E0220321362000F000F9F0220321D0
:1010C000BDE81040362000F0F9B8024601210A20A0
:1010D00000F0E5B870B50446C0074FF000014FF0CE
:1010E000260026D0FFF793FF20F4705040F4A05262
:1010F0000021262000F0D3F800213620FFF787FFDB
:1011000040F404020021362000F0C9F84FF488753D
:10111000A00700D50B4D28212A46362000F0BFF845
:10112000A0070DD52821AAB23620BDE8704000F0F6
:10113000B6B8FFF76CFF20F4705200212620F4E7C8
:1011400070BD000010010F0002462421272000F08E
:1011500099B810B5044600211A20FFF758FFC4F3D0
:1011600013026FF3130002430021BDE810401A2060
:1011700000F095B8024641F604012E2000F082B836
:1011800070B5064603210420FFF752FF0D4D0446BB
:101190005EB1324600210C2000F074F8286844F05B
:1011A0001002016941F0805105E020F0100228682A
:1011B000016921F080510161BDE8704003210420E4
:1011C00000F07CB82C00002002460021182000F01E
:1011D00059B800F01F0040F060020E212B2000F0F3
:1011E0006DB8000010B5FFF73CFC002211462C2022
:1011F00000F048F8002206212C2000F05FF8FFF7ED
:101200000EFC00220321362000F058F80120FFF7E1
:10121000C2FCF0220321362000F050F802490020E1
:101220000968487510BD00002C00002010B500248E
:101230002146820704D5124B802101221B685A7572
:10124000C00714D041F0060200210D2000F036F84E
:1012500003210F20FFF7CCFE10F4816F0DD0402248
:1012600000210D2000F02AF84FF0FF3405E041F096
:10127000020200210D2000F021F8204610BD0000E0
:101280002C00002008B589B28DF80020120A8DF8D4
:10129000012080B26B46022200F018F808BD38B574
:1012A00000236C46E254120A5B1C042BFADB89B261
:1012B00080B22346042200F009F838BD07B589B290
:1012C00080B202AB012200F001F80EBD08B551B1A9
:1012D00040F0C0008DF80000C8B27F2909D88DF811
:1012E000010002200DE040F080008DF80000012098
:1012F00007E040F080008DF80100C8098DF8020079
:101300000320694600F0CEF908BD10B5144602442A
:10131000B2F5806F07D80B46821E21460920FFF7E1
:10132000D5FF002010BD4FF0FF3010BD890541EA08
:10133000C23204490968C96801430A4300210820F0
:10134000FFF7ADBF2C00002010B500214254120A57
:1013500042EA03621B0A491C0429F7DB10BD0000A6
:101360000EB501211020FFF765F810208DF803005D
:101370004402ADF800400320814D8DF8020069461B
:101380002846FEF7B9FF21462846FFF708F8FFF781
:101390001BFCFFF70DFA00F011F97F4E79A13046E2
:1013A000FFF76BFA00F054F900F010F90120FFF795
:1013B00069FD4FF47A79401C5ED000F004F977485B
:1013C000FFF754FC0120FFF785FE44F23404204669
:1013D000FFF7D0FE2046FFF7F7FE4FF49670FFF7B9
:1013E000B8FE40F68C20FFF7CBFE0820FFF7ACFEDE
:1013F000DFF8A8816A4F08F10C084FF0000AA8F145
:101400002C040022217888F8021064490C200C3149
:10141000FFF77BFF012200210C20FFF787FF02204E
:10142000FFF704FF00210F20FFF7F1FD3842606055
:10143000F8D02078401C2070A08840047ED54FF45E
:10144000814200210F20FFF72AFF00211020FFF723
:10145000DEFD00F07F01182903D800225148FFF774
:1014600012FE50490A224F4881F802A04B49183118
:10147000FEF7CCFE68B17EE04F464BA13046FFF749
:10148000FCF921462846FEF788FF3846FFF783FB24
:10149000F3E70026354601A8FFF704FE042001A962
:1014A0002D0245EA166532020E5C1643401EF7D542
:1014B000C4E90265002635460846FFF7EDFD042025
:1014C00001A92D0245EA166532020E5C1643401E44
:1014D000F7D53848C4E90465301845F10001050A1C
:1014E00045EA01652846FFF7F0FD25F00100010EF1
:1014F000000244F23402821841F10000C4E90620DF
:101500002648D4E902233130FFF71EFF2348D4E9EF
:1015100004233530FFF718FF2048D4E9062339307B
:10152000FFF712FF1D49207827310022887018200C
:10153000FFF7EBFE01220021182000E014E0FFF786
:10154000F5FE0120FFF772FEA8B900210F20FFF77A
:101550005EFD0006F9D5802200210F20FFF79FFED7
:101560002078401C207006E0134A00210F20FFF76E
:1015700096FEFFF79DFD4846FFF744FB41E700005C
:101580000010014053746172742044573130303080
:1015900020496E69740A00000038014050000020A4
:1015A00000D02724C8000020496E69742046616974
:1015B0006C0A000000001C0C0090272410B5FEF7F8
:1015C000B5FF002010BD0820FEF79CBF2020FEF7CD
:1015D00099BF00002DE9F05F1D4616468A46074672
:1015E0000024FFF7E3FA18494FF010098346C1F8C9
:1015F0000090DFF858800DE01AF80410A8F80C10DD
:1016000001214046FFF71AF80028F9D0B8F80C007D
:101610002870641CBC42EFDB00200246414606E015
:101620008A810B89DB07FCD08B892B54401CB0428C
:10163000F6D30549091FC1F800905846FFF7ADFAE7
:101640000020BDE8F09F0000140801400030014078
:10165000F8B54FF48054ADF8004010208DF8030029
:101660000F4E03258DF8025069463046FEF744FEC2
:10167000002221463046FEF794FE0120FFF7DCFAF7
:10168000ADF8004000208DF803008DF80250694647
:101690003046FEF731FE0220FFF752F8F8BD000099
:1016A000000C01402DE9F041984615460F460646CC
:1016B0000024FFF77BFA024611481023036011480B
:1016C00006E0395D81810189C907FCD08189641CEC
:1016D000B442F6DB002107E018F801408481048958
:1016E000E407FCD08489491CA942F5D30448001FB3
:1016F00003601046FFF751FA0020BDE8F0810000BA
:1017000014080140003001400000010203040005FC
:10171000405C0000A05C0400C06C0800805C040019
:10172000E03F1E00E07D1E00070400090805400898
:1017300009104008080540081D0400081D040008A1
:101740001E265626BEBED8BC07A9022570889B88D7
:10175000401008000A001600010006000100020007
:1017600087008D003C001A3152001A339A001A3556
:101770001D011A376B003B31BE003B335E013B3528
:1017800096023B37000098599859EA518E421E45FF
:10179000142E0080EA51F4283233E03A703DE03AEA
:1017A000C235842BC2353233C235C235AE47E03A3A
:1017B0005038A23050380000D81700080000002030
:1017C000900000006C0100086818000890000020DC
:1017D000B0060000880100080204060800000000AE
:1017E00001020304010203040607080900A24A04D7
:1017F00000000000000000000102030406070809C1
:101800000000000090000020000000000000000028
:1018100000000000000000000000000000000000C8
:101820000000000000000000020208020909010097
:1018300000002104418800CADE47455441210000D0
:10184000418800CADE504F4C4110020000000041A8
:101850008800CADE46494E41230000000000000017
:08186000000000000000000080
:0400000508000131BD
:00000001FF
